:10000000020017E4F5D075813278207A12F608DA0A
:0A001000FC12037B02000002000353
:1001000020000201FBE4F52CF52D7499C39BF580CA
:1001100075A00175A000E4F52CF52D8A2E8B2F8C8F
:10012000308D310201E2E52D452C700280028009FC
:100130007580B975A00375A002E52DB40107E52C03
:10014000B40002800280097580A075A00375A0022A
:10015000E52DB40207E52CB4000280028009758009
:10016000A175A00375A002E52DB40307E52CB4002A
:1001700002800280097580A075A00375A002E52D9C
:10018000B40407E52CB40002800280097580B175C3
:10019000A00375A002E52DB40507E52CB40002808C
:1001A0000280097580A475A00375A002E52DB40630
:1001B00007E52CB40002800280097580A975A003B0
:1001C00075A002E52DB40707E52CB400028002807B
:1001D000097580AE75A00375A002052DE52D70028E
:1001E000052CC3E52D95318530F063F080E52C6456
:1001F0008095F040028003020126220201050203DD
:1002000078E4F52CF52D7580C075A00175A00075FA
:10021000800675A00175A000E4F52CF52DE52D24D0
:10022000F7E52C6480347F50028002800302036E65
:10023000E52D452C7002800280137580A075A00307
:1002400075A0027400F58075A00375A002E52DB4B9
:100250000107E52CB40002800280137580AC75A004
:100260000375A0027400F58075A00375A002E52D4A
:10027000B40207E52CB40002800280137580A575D6
:10028000A00375A0027400F58075A00375A002E5B7
:100290002DB40307E52CB40002800280137580ABF7
:1002A00075A00375A0027400F58075A00375A00207
:1002B000E52DB40407E52CB400028002801375809C
:1002C000B275A00375A0027400F58075A00375A037
:1002D00002E52DB40507E52CB400028002801375F9
:1002E00080A075A00375A0027400F58075A0037549
:1002F000A002E52DB40607E52CB4000280028013AD
:100300007580AE75A00375A0027400F58075A0031A
:1003100075A002E52DB40707E52CB4000280028029
:10032000137580A475A00375A0027400F58075A0F4
:100330000375A002E52DB40807E52CB40002800285
:1003400080137580B175A00375A0027400F58075E7
:10035000A00375A002052DE52D7002052CE52D24C6
:10036000F7E52C6480347F500280030202307580F0
:100370000175A00075A0012202020102041A752471
:1003800000752501E4F526F5277528007529017506
:100390002A00752B9975803875A00175A0007580AD
:1003A0008A75A00175A000AA24AB25AC28AD29123E
:1003B00001021201FE75800175A00075A0010525DE
:1003C000E52570020524E52924F8E52834FF4002DC
:1003D000800280080529E52970020528E5274526C1
:1003E0007002800280140527E52770020526E525A6
:1003F0002405F525E5243400F524E525B41A07E5A0
:1004000024B400028002800FE4F524F525E4F528E9
:0D041000F529E4F526F527808E2202037EF3
:00000001FF
