:100000000200B38057752000752100752201780128
:1000100079007A007B237D0B7C00120074792D8798
:1000200090E5B07003752100E5B0600A8000E5211D
:100030007004800080048000801FE520B4050675F0
:1000400020007522017423A922780029F987A005D0
:1000500020052174022522F52280C62280A78982EC
:1000600088838B00EC4D6036E4E0F608A31DBDFFED
:10007000F31C80F0B800118B00EC4D6021E7F6090D
:10008000081DBDFFF41C80F1898288838B00EC4D34
:10009000600CE493F608A31DBDFFF31C80F022E47E
:1000A000F5D075812E78207A0EF608DAFC1200035E
:0600B00002000002009FA7
:0B010000C0F9A4B0999282F88090FF33
:00000001FF
