:1000000002008AE5836003E49322A882E622E58366
:100010006004E4938003A882E6F822E5836004E4A8
:10002000938003A882E6F922E5836004E4938003C9
:10003000A882E6FA22E5836004E4938003A882E6BE
:10004000FB22E5836004E4938003A882E6FC22E5BA
:10005000836004E4938003A882E6FD22E5836004C4
:10006000E4938003A882E6FE22E5836004E49380A3
:1000700003A882E6FF22E4F5D075813A78207A1A47
:0D008000F608DAFC1201DD02000002007635
:10010000467269656E64730048656C6C6F00200010
:10011000328058E4F534F5357499C39533F580751C
:10012000A00175A000E4F534F5358A368B378C389C
:100130008D39801FE5352539F582E5343538F5836D
:10014000120003F58075A00375A0020535E5357032
:10015000020534C3E53595378536F063F080E53424
:10016000648095F04002800280CA2280A6806CE400
:10017000F532F5337580C075A00175A000E4F53245
:10018000F5338C348D35E53324F9E5326480347FE2
:100190005002800280028039E5332535F582E53250
:1001A0003534F583120003F58075A00375A0027441
:1001B0000EF58075A00375A0020533E533700205C6
:1001C00032E53324F9E5326480347F5002800280C6
:1001D000C775800175A00075A00122809202029867
:1001E000752400752501E4F526F527752800752985
:1001F00001752A01752B08752C01752D00752E01CE
:10020000752F0E75300075319975803875A00175A0
:10021000A00075808A75A00175A00085243285250F
:1002200033AA28AB29AC2AAD2B120111AC2CAD2D71
:1002300012016D75800175A00075A0010525E525E9
:1002400070020524E52924FAE52834FF40028002E3
:1002500080080529E52970020528E5274526700252
:10026000800280140527E52770020526E525240570
:10027000F525E5243400F524E525B41907E524B473
:1002800000028002800FE4F524F525E4F528F52925
:0B029000E4F526F5278084220201E03F
:00000001FF
